:1000000071C0000041C1000074C10000A7C1000020
:10001000DAC1000069C2000077C0000075C00000AE
:1000200073C0000071C000006FC000006DC0000010
:100030006BC0000069C0000067C0000065C0000020
:1000400063C0000061C000005FC000005DC0000030
:100050005BC0000059C0000057C0000055C0000040
:1000600053C0000051C000004FC000004DC0000050
:100070004BC0000049C0000047C0000045C0000060
:1000800043C0000041C000003FC000003DC0000070
:100090003BC0000039C0000037C0000035C0000080
:1000A00033C0000031C000002FC000002DC0000090
:1000B0002BC0000029C0000027C0000025C00000A0
:1000C00023C0000021C000001FC000001DC00000B0
:1000D0001BC0000019C0000017C0000015C00000C0
:1000E00013C0000011241FBECFEFD1E2DEBFCDBF91
:1000F00000E00CBF22E0A0E0B2E001C01D92A730FA
:10010000B207E1F782D215C47BCFE1E0F1E0808154
:100110008861808380EF8093A00083E18093A100B9
:1001200084EC99E09093A7008093A6008AEC98E075
:100130009093A9008093A8009093AB008093AA00AD
:1001400008958836F9F4109201021092000280E0BE
:1001500090E0E8EAF0E08653974F918380838FE345
:100160009CE90197F1F700C0000080910002909196
:10017000010201969093010280930002863491055A
:1001800054F308958637F1F41092010210920002A0
:1001900080E090E0EAEAF0E08653974F9183808315
:1001A0008FE39CE90197F1F700C000008091000205
:1001B000909101020196909301028093000286348F
:1001C000910554F308958836F1F485E490E0909316
:1001D000010280930002E8EAF0E08653974F918392
:1001E00080838FE39CE90197F1F700C000008091C4
:1001F0000002909101020197909301028093000206
:1002000099235CF708958637E9F485E490E09093AC
:10021000010280930002EAEAF0E08653974F91834F
:1002200080838FE39CE90197F1F700C00000809183
:1002300000029091010201979093010280930002C5
:1002400099235CF70895249AE1E0F1E080818064CD
:10025000808381EA8093B00081E08093B1001092A6
:10026000B3001092B40008958FEF8093B30083E33E
:100270008093B40008958FEF8093B4000895109296
:10028000B3001092B40008951F920F920FB60F9210
:1002900011240BB60F922F933F934F935F936F935D
:1002A0007F938F939F93AF93BF93EF93FF9380912F
:1002B0000502811106C088E644DF81E080930502D3
:1002C00004C088E680DF10920502E09AFF91EF916A
:1002D000BF91AF919F918F917F916F915F914F915E
:1002E0003F912F910F900BBE0F900FBE0F901F905C
:1002F00018951F920F920FB60F9211240BB60F9202
:100300002F933F934F935F936F937F938F939F931D
:10031000AF93BF93EF93FF9380910402811106C0C6
:1003200086E70FDF81E08093040204C086E74BDF9D
:1003300010920402E19AFF91EF91BF91AF919F91CA
:100340008F917F916F915F914F913F912F910F907E
:100350000BBE0F900FBE0F901F9018951F920F921B
:100360000FB60F9211240BB60F922F933F934F931A
:100370005F936F937F938F939F93AF93BF93EF930D
:10038000FF9380910302811107C010920202E2D113
:1003900081E08093030203C074D110920302E29AB9
:1003A000FF91EF91BF91AF919F918F917F916F914D
:1003B0005F914F913F912F910F900BBE0F900FBE09
:1003C0000F901F9018951F920F920FB60F92112445
:1003D0000BB60F922F933F934F935F936F937F933F
:1003E0008F939F93AF93BF93EF93FF9380910202FC
:1003F0008F5F80930202813011F482E012D28091EB
:100400000202823021F40DD285E590E028D180915E
:100410000202833029F482E004D287E390E01FD106
:1004200080910202843029F482E0FBD18AE590E0D9
:1004300016D180910202853029F482E0F2D162E384
:1004400085E08DD180910202863051F482E0E9D1BD
:1004500060E085E084D180E02CD184E490E0FFD09E
:1004600080910202873011F482E0DBD18091020298
:10047000883051F482E0D5D160E085E070D181E030
:1004800018D18AE590E0EBD080910202893011F416
:1004900082E0C7D1809102028A3011F482E0C1D19A
:1004A000809102028B3019F4ECD083E0BAD12FEFA7
:1004B00083ED90E3215080409040E1F700C00000C0
:1004C000E39AFF91EF91BF91AF919F918F917F91AF
:1004D0006F915F914F913F912F910F900BBE0F90B5
:1004E0000FBE0F901F9018951F920F920FB60F928C
:1004F00011240BB60F922F933F934F935F936F93FB
:100500007F938F939F93AF93BF93EF93FF938091CC
:1005100002028F5F80930202813011F482E081D168
:1005200080910202823021F47CD185E590E097D061
:1005300080910202833029F482E073D187E390E056
:100540008ED080910202843029F482E06AD18AE55B
:1005500090E085D080910202853029F482E061D15B
:1005600062E385E0FCD080910202863051F482E0A3
:1005700058D160E085E0F3D080E09BD084E490E047
:100580006ED080910202873011F482E04AD18091CE
:100590000202883051F482E044D160E085E0DFD08F
:1005A00081E087D08AE590E05AD0809102028930BC
:1005B00011F482E036D1809102028A3011F482E097
:1005C00030D1809102028B3019F45BD083E029D1C5
:1005D0002FEF83ED90E3215080409040E1F700C081
:1005E0000000E49AFF91EF91BF91AF919F918F919D
:1005F0007F916F915F914F913F912F910F900BBE23
:100600000F900FBE0F901F90189520D162D07DDD06
:100610001ADE48E060E875E280E090E025D12FEF37
:1006200083ED90E3215080409040E1F700C000004E
:10063000CED02FEF83ED90E3215080409040E1F742
:1006400000C0000081E0EDD02FEF83ED90E321505A
:1006500080409040E1F700C000007CD0FFCF282F01
:10066000392F220F331FA901440F551F440F551F67
:10067000240F351F3093290120932801809306020F
:1006800008952FEF89E698E1215080409040E1F7EE
:1006900000C0000080E090E0E2DFEDDD2FEF89E6B2
:1006A00098E1215080409040E1F700C00000E7CD84
:1006B0000895811106C0EBE0F1E080818F7780839F
:1006C0000895813029F4EBE0F1E080818068808337
:1006D000089588E880930A0183E88093200185E0EB
:1006E0008093210180E090E0BADF81E0E2CF0895BD
:1006F000DF92EF92FF920F931F93CF93DF93D62E4B
:100700000091060210E0E62EF12C0E151F05C4F430
:10071000C82FD0E0C801A3DF1C161D0664F480E0DA
:1007200090E0EFE9FFE03197F1F700C0000001969B
:100730008C179D07B1F70F5F1F4F0E151F0554F360
:10074000D0920602DF91CF911F910F91FF90EF9011
:10075000DF9008956AE58AE0CBDF86CD0895EF92B9
:10076000FF920F931F93CF93DF93C82FE62E83DD65
:100770000091060210E0F12CE016F106BCF4D0E086
:10078000C8016DDF1C161D0664F480E090E0EFE9FF
:10079000FFE03197F1F700C0000001968C179D072C
:1007A000B1F701501109E016F10654F3FFEF29E605
:1007B00088E1F15020408040E1F700C0000054DDA6
:1007C000DF91CF911F910F91FF90EF9008958EE7E9
:1007D00086D086E084D080E082D080E080D08EE138
:1007E0007ED08FEF7CD08CED7AD08FEE78D02FEF4B
:1007F00083ED90E3215080409040E1F700C000007D
:100800008EE76DD089E06BD080E069D080E067D062
:1008100082E065D08FEF63D085EF61D08FEE5FC04F
:100820000895CF93C82F8EE75AD083E058D080E048
:1008300056D080E054D08C2F52D08FEF50D08DEF17
:100840008C1B4DD08FEE4BD0CF9108958AB1807F15
:100850008AB96C988FEF8093690083E080936A0077
:100860008FE18DBB789408950F931F938B019C01AA
:100870000C52114021093109053D104C2140310530
:1008800018F44550443018F081E090E052D028E14F
:100890002093D10026E02093D200DC01CB01880F09
:1008A000991FAA1FBB1F880F991FAA1FBB1F9C015E
:1008B000AD01220F331F441F551F220F331F441F4A
:1008C000551F60E074E284EF90E011D021503109AF
:1008D0003093D5002093D4001F910F910895E0ED3F
:1008E000F0E0908195FFFDCF8093D6000895A1E2BE
:1008F0001A2EAA1BBB1BFD010DC0AA1FBB1FEE1F9A
:10090000FF1FA217B307E407F50720F0A21BB30BE4
:10091000E40BF50B661F771F881F991F1A9469F760
:1009200060957095809590959B01AC01BD01CF01BC
:060930000895F894FFCFCA
:04000003000007549E
:00000001FF
