:1000000071C00000EDC100008AC20000B4C1000050
:1000100048C100007BC1000084C0000082C0000015
:1000200080C000007EC000007CC000007AC00000DC
:1000300078C0000076C0000074C0000072C00000EC
:1000400070C000006EC000006CC000006AC00000FC
:1000500068C0000066C0000064C0000062C000000C
:1000600060C000005EC000005CC000005AC000001C
:1000700058C0000056C0000054C0000052C000002C
:1000800050C000004EC000004CC000004AC000003C
:1000900048C0000046C0000044C0000042C000004C
:1000A00040C000003EC000003CC000003AC000005C
:1000B00038C0000036C0000034C0000032C000006C
:1000C00030C000002EC000002CC000002AC000007C
:1000D00028C0000026C0000024C0000022C000008C
:1000E00020C0000011241FBECFEFD1E2DEBFCDBF84
:1000F00000E00CBF12E0A0E0B2E0EAE7F9E000E0C7
:100100000BBF02C007900D92A230B107D9F722E0D1
:10011000A2E0B2E001C01D92A830B207E1F79ED282
:100120002AC46ECFE1E0F1E080818861808380EFB6
:100130008093A00083E18093A10084EC99E09093E8
:10014000A7008093A6008AEC98E09093A900809382
:10015000A8009093AB008093AA0008958836F9F424
:10016000109203021092020280E090E0E8EAF0E0D0
:100170008653974F918380838FE39CE90197F1F732
:1001800000C00000809102029091030201969093BA
:100190000302809302028634910554F30895863752
:1001A000F1F4109203021092020280E090E0EAEA79
:1001B000F0E08653974F918380838FE39CE901970A
:1001C000F1F700C0000080910202909103020196B5
:1001D00090930302809302028634910554F30895AC
:1001E0008836F1F485E490E0909303028093020254
:1001F000E8EAF0E08653974F918380838FE39CE990
:100200000197F1F700C00000809102029091030273
:100210000197909303028093020299235CF708955B
:100220008637E9F485E490E090930302809302021C
:10023000EAEAF0E08653974F918380838FE39CE94D
:100240000197F1F700C00000809102029091030233
:100250000197909303028093020299235CF708951B
:10026000249AE1E0F1E080818064808381EA8093D8
:10027000B00081E08093B1001092B3001092B400FE
:1002800008958FEF8093B30083E38093B4000895C3
:100290008FEF8093B40008951092B3001092B400D1
:1002A00008951F920F920FB60F9211240BB60F9262
:1002B0002F933F934F935F936F937F938F939F936E
:1002C000AF93BF93EF93FF9380910702811106C014
:1002D00088E644DF81E08093070204C088E680DF7F
:1002E00010920702E39AFF91EF91BF91AF919F9116
:1002F0008F917F916F915F914F913F912F910F90CF
:100300000BBE0F900FBE0F901F9018951F920F926B
:100310000FB60F9211240BB60F922F933F934F936A
:100320005F936F937F938F939F93AF93BF93EF935D
:10033000FF9380910602811106C086E70FDF81E0FE
:100340008093060204C086E74BDF10920602E49A0F
:10035000FF91EF91BF91AF919F918F917F916F919D
:100360005F914F913F912F910F900BBE0F900FBE59
:100370000F901F9018951F920F920FB60F92112495
:100380000BB60F922F933F934F935F936F937F938F
:100390008F939F93AF93BF93EF93FF938091050249
:1003A000811107C01092040201D281E080930502FE
:1003B00003C095D110920502E29AFF91EF91BF918F
:1003C000AF919F918F917F916F915F914F913F91ED
:1003D0002F910F900BBE0F900FBE0F901F9018958E
:1003E0001F920F920FB60F9211240BB60F922F93FC
:1003F0003F934F935F936F937F938F939F93AF93AD
:10040000BF93EF93FF93F894809104028F5F8093E2
:100410000402813011F482E026D2809104028230FD
:1004200021F421D285E590E048D180910402833007
:1004300029F482E018D287E390E03FD18091040252
:10044000843029F482E00FD28AE590E036D18091A1
:100450000402853029F482E006D262E385E0ABD164
:1004600080910402863051F482E0FDD160E085E0A5
:10047000A2D180E04CD184E490E01FD180910402AD
:10048000873011F482E0EFD180910402883051F47A
:1004900082E0E9D160E085E08ED181E038D18AE563
:1004A00090E00BD180910402893011F482E0DBD11D
:1004B000809104028A3011F482E0D5D18091040247
:1004C0008B3029F482E0CFD10AD183E0CCD12FEF59
:1004D00089E698E1215080409040E1F700C000009B
:1004E000D0DE2FEF89E698E1215080409040E1F77F
:1004F00000C00000E09A7894FF91EF91BF91AF9116
:100500009F918F917F916F915F914F913F912F912B
:100510000F900BBE0F900FBE0F901F9018951F925B
:100520000F920FB60F9211240BB60F922F933F9399
:100530004F935F936F937F938F939F93AF93BF93EB
:10054000EF93FF93F894809104028F5F80930402ED
:10055000813011F482E087D180910402823021F44D
:1005600082D185E590E0A9D080910402833029F4FE
:1005700082E079D187E390E0A0D0809104028430BA
:1005800029F482E070D18AE590E097D0809104024E
:10059000853029F482E067D162E385E00CD1809157
:1005A0000402863051F482E05ED160E085E003D140
:1005B00080E0ADD084E490E080D080910402873068
:1005C00011F482E050D180910402883051F482E02D
:1005D0004AD160E085E0EFD081E099D08AE590E0F3
:1005E0006CD080910402893011F482E03CD180917A
:1005F00004028A3011F482E036D1809104028B30FB
:1006000029F482E030D16BD083E02DD12FEF89E641
:1006100098E1215080409040E1F700C0000031DEB9
:100620002FEF89E698E1215080409040E1F700C02B
:100630000000E19A7894FF91EF91BF91AF919F9163
:100640008F917F916F915F914F913F912F910F907B
:100650000BBE0F900FBE0F901F901895F89418D1F5
:1006600066D060DDFDDD48E060E875E280E090E0A6
:100670001DD12FEF33ED80E3215030408040E1F772
:1006800000C00000C6D09FEF23ED30E39150204022
:100690003040E1F700C0000081E0E5D084E597E953
:1006A0002FEB31E08150904020403040D9F700C01E
:1006B00000C0000078947AD0FFCF282F392F220F66
:1006C000331FA901440F551F440F551F240F351F19
:1006D00030932901209328018093000208952FEF81
:1006E00089E698E1215080409040E1F700C0000089
:1006F00080E090E0E2DFCCDD2FEF89E698E1215049
:1007000080409040E1F700C00000C6CD08958111FF
:1007100006C0EBE0F1E080818F778083089581301F
:1007200029F4EBE0F1E0808180688083089588E817
:1007300080930A0183E88093200185E08093210162
:1007400080E090E0BADF81E0E2DF88E2809300029F
:100750000895EF92FF920F931F93CF93DF93009131
:10076000000210E0E62EF12C0E151F05C4F4C82F70
:10077000D0E0C801A2DF1C161D0664F480E090E002
:10078000EFE9FFE03197F1F700C0000001968C1708
:100790009D07B1F70F5F1F4F0E151F0554F3DF9133
:1007A000CF911F910F91FF90EF9008956ADD6AE558
:1007B0008AE0CFCF0895EF92FF920F931F93CF93CC
:1007C000DF93C82FE62E64DD0091000210E0F12CCB
:1007D000E016F106BCF4D0E0C8016FDF1C161D0660
:1007E00064F480E090E0EFE9FFE03197F1F700C0BA
:1007F000000001968C179D07B1F701501109E01612
:10080000F10654F3DF91CF911F910F91FF90EF907C
:1008100008958EE786D086E084D080E082D080E0A4
:1008200080D08EE17ED08FEF7CD08CED7AD08FEEB1
:1008300078D02FEF83ED90E3215080409040E1F796
:1008400000C000008EE76DD089E06BD080E069D0F9
:1008500080E067D082E065D08FEF63D085EF61D014
:100860008FEE5FC00895CF93C82F8EE75AD083E0F4
:1008700058D080E056D080E054D08C2F52D08FEFEB
:1008800050D08DEF8C1B4DD08FEE4BD0CF91089573
:100890008AB1807F8AB96C988FEA8093690082E080
:1008A00080936A008FE18DBB789408950F931F9316
:1008B0008B019C010C52114021093109053D104C5E
:1008C0002140310518F44550443018F081E090E0A3
:1008D00052D028E12093D10026E02093D200DC0101
:1008E000CB01880F991FAA1FBB1F880F991FAA1F32
:1008F000BB1F9C01AD01220F331F441F551F220F48
:10090000331F441F551F60E074E284EF90E011D064
:10091000215031093093D5002093D4001F910F91BD
:100920000895E0EDF0E0908195FFFDCF8093D60033
:100930000895A1E21A2EAA1BBB1BFD010DC0AA1F20
:10094000BB1FEE1FFF1FA217B307E407F50720F038
:10095000A21BB30BE40BF50B661F771F881F991FB3
:100960001A9469F760957095809590959B01AC01FC
:0A097000BD01CF010895F894FFCFF8
:02097A001E005D
:04000003000007AC46
:00000001FF
