S00F000042696C4B6F64652E737265637B
S113000071C0000062C1000095C10000C8C10000B9
S1130010FBC10000BAC2000077C0000075C0000038
S113002073C0000071C000006FC000006DC000000C
S11300306BC0000069C0000067C0000065C000001C
S113004063C0000061C000005FC000005DC000002C
S11300505BC0000059C0000057C0000055C000003C
S113006053C0000051C000004FC000004DC000004C
S11300704BC0000049C0000047C0000045C000005C
S113008043C0000041C000003FC000003DC000006C
S11300903BC0000039C0000037C0000035C000007C
S11300A033C0000031C000002FC000002DC000008C
S11300B02BC0000029C0000027C0000025C000009C
S11300C023C0000021C000001FC000001DC00000AC
S11300D01BC0000019C0000017C0000015C00000BC
S11300E013C0000011241FBECFEFD1E2DEBFCDBF8D
S11300F000E00CBF22E0A0E0B2E001C01D92A630F7
S1130100B207E1F703D318C47BCFE1E0F1E08081CB
S11301108861808380EF8093A00083E18093A100B5
S113012084EC99E09093A7008093A6008AEC98E071
S11301309093A9008093A8009093AB008093AA00A9
S113014008958836F9F4109201021092000280E0BA
S113015090E0E8EAF0E08653974F918380838FE341
S11301609CE90197F1F700C0000080910002909192
S11301700102019690930102809300028734910555
S113018054F308958637F1F410920102109200029C
S113019080E090E0EAEAF0E08653974F9183808311
S11301A08FE39CE90197F1F700C000008091000201
S11301B0909101020196909301028093000287348A
S11301C0910554F308958836F1F486E490E0909311
S11301D0010280930002E8EAF0E08653974F91838E
S11301E080838FE39CE90197F1F700C000008091C0
S11301F00002909101020197909301028093000202
S113020099235CF708958637E9F486E490E09093A7
S1130210010280930002EAEAF0E08653974F91834B
S113022080838FE39CE90197F1F700C0000080917F
S113023000029091010201979093010280930002C1
S113024099235CF70895249AE1E0F1E080818064C9
S1130250808383EA8093B00081E08093B1001092A0
S1130260B3001092B4000895813031F48FEF80937D
S1130270B30083E38093B4000895813069F48FEF71
S11302808093B4002FEF83ED90E3215080409040A1
S1130290E1F700C000000895823019F48FEF8093D5
S11302A0B4000895813081F4E4EBF0E08FEF8083B3
S11302B02FEF83ED90E3215080409040E1F700C0A0
S11302C000001092B300108208951F920F920FB68F
S11302D00F9211240BB60F922F933F934F935F937A
S11302E06F937F938F939F93AF93BF93EF93FF93FA
S11302F080910502811106C088E623DF81E08093A6
S1130300050204C088E65FDF10920502E09AFF91BF
S1130310EF91BF91AF919F918F917F916F915F9179
S11303204F913F912F910F900BBE0F900FBE0F90E6
S11303301F9018951F920F920FB60F9211240BB6AF
S11303400F922F933F934F935F936F937F938F936A
S11303509F93AF93BF93EF93FF9380910402811116
S113036006C086E7EEDE81E08093040204C086E7DF
S11303702ADF10920402E19AFF91EF91BF91AF91AD
S11303809F918F917F916F915F914F913F912F91A9
S11303900F900BBE0F900FBE0F901F9018951F92D9
S11303A00F920FB60F9211240BB60F922F933F9317
S11303B04F935F936F937F938F939F93AF93BF9369
S11303C0EF93FF9380910302811107C01092020200
S11303D0D2D181E08093030203C0D6D110920302EC
S11303E0E29AFF91EF91BF91AF919F918F917F918D
S11303F06F915F914F913F912F910F900BBE0F9092
S11304000FBE0F901F9018951F920F920FB60F9268
S113041011240BB60F922F933F934F935F936F93D7
S11304207F938F939F93AF93BF93CF93DF93EF9378
S1130430FF93809102028F5F80930202813011F456
S113044082E0F3D180910202823029F485E590E0C4
S1130450A2D182E0EAD180910202833029F487E3B9
S113046090E099D182E0E1D180910202843029F4B4
S11304708AE590E090D182E0D8D180910202853063
S113048009F067C082E390E086D182E0CED180910A
S113049002028630B1F4C2E3D0E0CE017CD12FEF6A
S11304A089EF90E0215080409040E1F700C00000C7
S11304B0219799F780E07FD184E490E06CD182E0C9
S11304C0B4D180910202873009F047C082E0ADD1F7
S11304D0809102028830B1F4C2E3D0E0CE015BD156
S11304E02FEF89EF90E0215080409040E1F700C069
S11304F00000219799F781E05ED18AE590E04BD125
S113050082E093D180910202893011F482E08DD18E
S1130510809102028A3011F482E087D18091020234
S11305208B3061F42FEF89E698E1215080409040B0
S1130530E1F700C0000028D183E077D12FEF83EDED
S113054090E3215080409040E1F700C00000E39A1E
S113055007C0863009F0B5CF9ECF883099F6BCCF5E
S1130560FF91EF91DF91CF91BF91AF919F918F91C7
S11305707F916F915F914F913F912F910F900BBE9F
S11305800F900FBE0F901F9018951F920F920FB6E9
S11305900F9211240BB60F922F933F934F935F93B7
S11305A06F937F938F939F93AF93BF93CF93DF9377
S11305B0EF93FF93809102028F5F80930202813058
S11305C011F482E032D180910202823029F485E56F
S11305D090E0E1D082E029D180910202833029F4B5
S11305E087E390E0D8D082E020D180910202843069
S11305F029F48AE590E0CFD082E017D180910202FD
S1130600853009F067C082E390E0C5D082E00DD167
S1130610809102028630B1F4C2E3D0E0CE01BBD0B7
S11306202FEF89EF90E0215080409040E1F700C027
S11306300000219799F780E0BED084E490E0ABD02D
S113064082E0F3D080910202873009F047C082E053
S1130650ECD0809102028830B1F4C2E3D0E0CE0144
S11306609AD02FEF89EF90E0215080409040E1F73D
S113067000C00000219799F781E09DD08AE590E0C1
S11306808AD082E0D2D080910202893011F482E0D3
S1130690CCD0809102028A3011F482E0C6D08091DD
S11306A002028B3061F42FEF89E698E121508040FB
S11306B09040E1F700C0000067D083E0B6D02FEF90
S11306C083ED90E3215080409040E1F700C00000AA
S11306D0E49A07C0863009F0B5CF9ECF883099F6EA
S11306E0BCCFFF91EF91DF91CF91BF91AF919F91DB
S11306F08F917F916F915F914F913F912F910F90C7
S11307000BBE0F900FBE0F901F901895A3D063D00F
S1130710FCDC99DD48E060E875E280E090E0A7D079
S11307202FEF83ED90E3215080409040E1F700C02B
S1130730000061D02FEF83ED90E321508040904082
S1130740E1F700C0000081E070D02FEF83ED90E36B
S1130750215080409040E1F700C000000CD02FEF02
S113076087EA91E6215080409040E1F700C0000004
S113077081E083DDFFCF84E893E0909329018093A7
S1130780280181E071CD0895109229011092280169
S113079081E088CD08959C01220F331F880F991F93
S11307A0880F991F880F991F820F931F9093290117
S11307B0809328010895811106C0EBE0F1E0808167
S11307C08F7780830895813029F4EBE0F1E0808114
S11307D080688083089588E880930A0183E8809381
S11307E0200185E0809321011092290110922801B3
S11307F081E0E1CF08958EE775D086E073D080E084
S113080071D080E06FD08EE16DD08FEF6BD08CED26
S113081069D08FEE67D02FEF83ED90E321508040B5
S11308209040E1F700C000000895CF93C82F8EE7F1
S113083059D083E057D080E055D080E053D08C2F3E
S113084051D08FEF4FD08DEF8C1B4CD08FEE4AD010
S1130850CF9108958AB1807F8AB96C9883E08093A0
S1130860690080936A008FE18DBB789408950F939B
S11308701F938B019C010C52114021093109053D44
S1130880104C2140310518F44550443018F081E0F3
S113089090E052D028E12093D10026E02093D200AA
S11308A0DC01CB01880F991FAA1FBB1F880F991F5A
S11308B0AA1FBB1F9C01AD01220F331F441F551FEC
S11308C0220F331F441F551F60E074E284EF90E051
S11308D011D0215031093093D5002093D4001F91B9
S11308E00F910895E0EDF0E0908195FFFDCF8093A6
S11308F0D6000895A1E21A2EAA1BBB1BFD010DC050
S1130900AA1FBB1FEE1FFF1FA217B307E407F507BB
S113091020F0A21BB30BE40BF50B661F771F881F97
S1130920991F1A9469F760957095809590959B012D
S10F0930AC01BD01CF010895F894FFCF85
S90307767F
