:1000000071C0000062C1000095C10000C8C10000BD
:10001000FBC100008BC2000077C0000075C000006B
:1000200073C0000071C000006FC000006DC0000010
:100030006BC0000069C0000067C0000065C0000020
:1000400063C0000061C000005FC000005DC0000030
:100050005BC0000059C0000057C0000055C0000040
:1000600053C0000051C000004FC000004DC0000050
:100070004BC0000049C0000047C0000045C0000060
:1000800043C0000041C000003FC000003DC0000070
:100090003BC0000039C0000037C0000035C0000080
:1000A00033C0000031C000002FC000002DC0000090
:1000B0002BC0000029C0000027C0000025C00000A0
:1000C00023C0000021C000001FC000001DC00000B0
:1000D0001BC0000019C0000017C0000015C00000C0
:1000E00013C0000011241FBECFEFD1E2DEBFCDBF91
:1000F00000E00CBF22E0A0E0B2E001C01D92A730FA
:10010000B207E1F7A5D24CC47BCFE1E0F1E08081FA
:100110008861808380EF8093A00083E18093A100B9
:1001200084EC99E09093A7008093A6008AEC98E075
:100130009093A9008093A8009093AB008093AA00AD
:1001400008958836F9F4109201021092000280E0BE
:1001500090E0E8EAF0E08653974F918380838FE345
:100160009CE90197F1F700C0000080910002909196
:10017000010201969093010280930002863491055A
:1001800054F308958637F1F41092010210920002A0
:1001900080E090E0EAEAF0E08653974F9183808315
:1001A0008FE39CE90197F1F700C000008091000205
:1001B000909101020196909301028093000286348F
:1001C000910554F308958836F1F485E490E0909316
:1001D000010280930002E8EAF0E08653974F918392
:1001E00080838FE39CE90197F1F700C000008091C4
:1001F0000002909101020197909301028093000206
:1002000099235CF708958637E9F485E490E09093AC
:10021000010280930002EAEAF0E08653974F91834F
:1002200080838FE39CE90197F1F700C00000809183
:1002300000029091010201979093010280930002C5
:1002400099235CF70895249AE1E0F1E080818064CD
:10025000808383EA8093B00081E08093B1001092A4
:10026000B3001092B4000895813031F48FEF809381
:10027000B30083E38093B4000895813069F48FEF75
:100280008093B4002FEF83ED90E3215080409040A5
:10029000E1F700C000000895823019F48FEF8093D9
:1002A000B4000895813081F4E4EBF0E08FEF8083B7
:1002B0002FEF83ED90E3215080409040E1F700C0A4
:1002C00000001092B300108208951F920F920FB693
:1002D0000F9211240BB60F922F933F934F935F937E
:1002E0006F937F938F939F93AF93BF93EF93FF93FE
:1002F00080910502811106C088E623DF81E08093AA
:10030000050204C088E65FDF10920502E09AFF91C3
:10031000EF91BF91AF919F918F917F916F915F917D
:100320004F913F912F910F900BBE0F900FBE0F90EA
:100330001F9018951F920F920FB60F9211240BB6B3
:100340000F922F933F934F935F936F937F938F936E
:100350009F93AF93BF93EF93FF938091040281111A
:1003600006C086E7EEDE81E08093040204C086E7E3
:100370002ADF10920402E19AFF91EF91BF91AF91B1
:100380009F918F917F916F915F914F913F912F91AD
:100390000F900BBE0F900FBE0F901F9018951F92DD
:1003A0000F920FB60F9211240BB60F922F933F931B
:1003B0004F935F936F937F938F939F93AF93BF936D
:1003C000EF93FF9380910302811107C01092020204
:1003D00089D181E08093030203C08AD11092030285
:1003E000E29AFF91EF91BF91AF919F918F917F9191
:1003F0006F915F914F913F912F910F900BBE0F9096
:100400000FBE0F901F9018951F920F920FB60F926C
:1004100011240BB60F922F933F934F935F936F93DB
:100420007F938F939F93AF93BF93EF93FF938091AD
:1004300002028F5F80930202813011F482E029D2A0
:1004400080910202823029F485E590E039D182E082
:1004500020D280910202833029F487E390E030D1EA
:1004600082E017D280910202843029F48AE590E07C
:1004700027D182E00ED280910202853029F462E316
:1004800084E19FD182E005D280910202863051F44E
:1004900060E084E196D180E045D184E490E010D121
:1004A00082E0F7D180910202873011F482E0F1D12D
:1004B00080910202883051F460E084E182D181E0D1
:1004C00031D18AE590E0FCD082E0E3D18091020254
:1004D000893011F482E0DDD1809102028A3011F47A
:1004E00082E0D7D1809102028B3019F401D183E0F0
:1004F000D0D12FEF83ED90E3215080409040E1F781
:1005000000C00000E39AFF91EF91BF91AF919F91DE
:100510008F917F916F915F914F913F912F910F90AC
:100520000BBE0F900FBE0F901F9018951F920F9249
:100530000FB60F9211240BB60F922F933F934F9348
:100540005F936F937F938F939F93AF93BF93EF933B
:10055000FF93809102028F5F80930202813011F439
:1005600082E097D180910202823029F485E590E003
:10057000A7D082E08ED180910202833029F487E3F4
:1005800090E09ED082E085D180910202843029F4EF
:100590008AE590E095D082E07CD18091020285309E
:1005A00029F462E384E10DD182E073D180910202EB
:1005B000863051F460E084E104D180E0B3D084E47B
:1005C00090E07ED082E065D180910202873011F404
:1005D00082E05FD180910202883051F460E084E1D2
:1005E000F0D081E09FD08AE590E06AD082E051D1DE
:1005F00080910202893011F482E04BD18091020295
:100600008A3011F482E045D1809102028B3019F4D6
:100610006FD083E03ED12FEF83ED90E321508040F7
:100620009040E1F700C00000E49AFF91EF91BF9184
:10063000AF919F918F917F916F915F914F913F917A
:100640002F910F900BBE0F900FBE0F901F9018951B
:1006500035D178D05ADDF7DD48E060E875E280E01A
:1006600090E039D12FEF83ED90E32150804090400E
:10067000E1F700C00000E3D02FEF83ED90E32150BD
:1006800080409040E1F700C0000081E002D12FEFF0
:1006900083ED90E3215080409040E1F700C00000DE
:1006A00021D06AE584E15DD02FEF87EA91E6215001
:1006B00080409040E1F700C0000081E0DEDDFFCF28
:1006C000282F392F220F331FA901440F551F440F24
:1006D000551F240F351F3093290120932801809343
:1006E000060208958AE590E0EBDF81E0BDCD089534
:1006F0002FEF89E698E1215080409040E1F700C05B
:10070000000080E090E0DCDF82E0B7DD2FEF80E7E3
:1007100092E0215080409040E1F700C0000081E06D
:10072000C1CD0895811106C0EBE0F1E080818F77A3
:1007300080830895813029F4EBE0F1E080818068C6
:100740008083089588E880930A0183E880932001DC
:1007500085E08093210180E090E0B2DF81E0E2CF8C
:100760000895DF92EF92FF920F931F93CF93DF9341
:10077000C0910602D0E0E62EF12CEC16FD06CCF47A
:10078000D82E082F10E0CE019BDFC017D1076CF4E4
:10079000CE01EFE9FFE03197F1F700C000000196CC
:1007A00080179107B4F3CD2DD0E02196EC16FD060D
:1007B00054F3DF91CF911F910F91FF90EF90DF9055
:1007C0000895DF92EF92FF920F931F93CF93DF93E1
:1007D000D82EE62E82E051DD80910602C82FD0E0AF
:1007E000F12CCE15DF05C4F40D2D10E0CE0168DF2D
:1007F000C017D1076CF4CE01EFE9FFE03197F1F7B4
:1008000000C00000019680179107B4F3CD2DD0E011
:100810002197CE15DF0554F3FFEF20E782E0F1507A
:1008200020408040E1F700C0000081E01DDDDF9145
:10083000CF911F910F91FF90EF90DF9008958EE779
:1008400085D086E083D080E081D080E07FD08EE1CB
:100850007DD08FEF7BD08CED79D08FEE77D02FEFDE
:1008600083ED90E3215080409040E1F700C000000C
:100870008EE76CD089E06AD080E068D080E066D0F6
:1008800082E064D08FEF62D085EF60D08FEE5EC0E3
:100890000895CF93C82F8EE759D083E057D080E0DA
:1008A00055D080E053D08C2F51D08FEF4FD08DEFAB
:1008B0008C1B4CD08FEE4AD0CF9108958AB1807FA7
:1008C0008AB96C9883E08093690080936A008FE115
:1008D0008DBB789408950F931F938B019C010C524C
:1008E000114021093109053D104C2140310518F412
:1008F0004550443018F081E090E052D028E1209338
:10090000D10026E02093D200DC01CB01880F991F93
:10091000AA1FBB1F880F991FAA1FBB1F9C01AD01F7
:10092000220F331F441F551F220F331F441F551F13
:1009300060E074E284EF90E011D0215031093093EF
:10094000D5002093D4001F910F910895E0EDF0E0C1
:10095000908195FFFDCF8093D6000895A1E21A2ED5
:10096000AA1BBB1BFD010DC0AA1FBB1FEE1FFF1F53
:10097000A217B307E407F50720F0A21BB30BE40BA3
:10098000F50B661F771F881F991F1A9469F76095EA
:100990007095809590959B01AC01BD01CF010895A4
:0409A000F894FFCFF9
:04000003000006E40F
:00000001FF
