:1000000071C0000034C1000002C200008AC00000BC
:1000100088C0000086C0000084C0000082C00000CC
:1000200080C000007EC000007CC000007AC00000DC
:1000300078C0000076C0000074C0000072C00000EC
:1000400070C000006EC000006CC000006AC00000FC
:1000500068C0000066C0000064C0000062C000000C
:1000600060C000005EC000005CC000005AC000001C
:1000700058C0000056C0000054C0000052C000002C
:1000800050C000004EC000004CC000004AC000003C
:1000900048C0000046C0000044C0000042C000004C
:1000A00040C000003EC000003CC000003AC000005C
:1000B00038C0000036C0000034C0000032C000006C
:1000C00030C000002EC000002CC000002AC000007C
:1000D00028C0000026C0000024C0000022C000008C
:1000E00020C0000011241FBECFEFD1E2DEBFCDBF84
:1000F00000E00CBF12E0A0E0B2E0E0EBF8E000E0CE
:100100000BBF02C007900D92A230B107D9F722E0D1
:10011000A2E0B2E001C01D92A530B207E1F747D2DC
:10012000C5C36ECFE1E0F1E080818861808380EF1C
:100130008093A00083E18093A10084EC99E09093E8
:10014000A7008093A6008AEC98E09093A900809382
:10015000A80085E699E09093AB008093AA000895EB
:100160008836F9F4109203021092020280E090E0C7
:10017000E8EAF0E08653974F918380838FE39CE910
:100180000197F1F700C000008091020290910302F4
:10019000019690930302809302028C39910554F3E7
:1001A00008958637F1F48BE990E0909303028093F1
:1001B0000202EAEAF0E08653974F918380838FE34F
:1001C0009CE90197F1F700C0000080910202909134
:1001D00003020197909303028093020218161906F6
:1001E00054F30895883681F48AEC98E09093A9003E
:1001F0008093A8002FEF83ED90E321508040904042
:10020000E1F700C000000895863779F485E699E0AB
:100210009093AB008093AA002FEF83ED90E32150E1
:1002200080409040E1F700C000000895249AE1E08A
:10023000F1E080818064808381EA8093B00081E076
:100240008093B1001092B3001092B40008958FEF24
:100250008093B30084E18093B40008958FEF80937E
:10026000B40008951092B3001092B40008951F9244
:100270000F920FB60F9211240BB60F922F933F934C
:100280004F935F936F937F938F939F93AF93BF939E
:10029000EF93FF93F894809104028F5F80930402A0
:1002A000813071F47ED224E537E98FEB91E0215063
:1002B000304080409040D9F700C000C000000FD20D
:1002C00080910402823011F46CD283C0833031F407
:1002D00082E067D28AE590E089D17BC0843031F436
:1002E00082E05FD281E490E081D173C0853031F447
:1002F00082E057D28AE590E079D16BC0863031F444
:1003000082E04FD262E385E0EFD163C08730A9F489
:1003100082E047D260E088E0E7D12FEF39E688E15C
:10032000215030408040E1F700C0000090DF80E0C5
:1003300087D184E490E05AD14CC0883031F482E017
:1003400030D282E390E052D144C08930A9F482E0F7
:1003500028D260E085E0C8D19FEF29E638E19150CE
:1003600020403040E1F700C0000071DF81E068D13B
:100370008AE590E03BD12DC08A3019F482E011D299
:1003800028C08B3019F482E00CD223C08C3009F5E0
:1003900082E007D23DD183E004D28FEF93ED20E3DA
:1003A000815090402040E1F700C0000086E7D8DE91
:1003B00088E6D6DE3FEF83E294EF315080409040F4
:1003C000E1F700C0000086E70DDF88E60BDF109242
:1003D00004022FEF33ED80E3215030408040E1F7FD
:1003E00000C00000E09A7894FF91EF91BF91AF9127
:1003F0009F918F917F916F915F914F913F912F913D
:100400000F900BBE0F900FBE0F901F9018951F926C
:100410000F920FB60F9211240BB60F922F933F93AA
:100420004F935F936F937F938F939F93AF93BF93FC
:10043000EF93FF93F894809104028F5F80930402FE
:10044000813071F4AED124E537E98FEB91E0215092
:10045000304080409040D9F700C000C000003FD13C
:1004600080910402823011F49CD183C0833031F436
:1004700082E097D18AE590E0B9D07BC0843031F436
:1004800082E08FD181E490E0B1D073C0853031F447
:1004900082E087D18AE590E0A9D06BC0863031F444
:1004A00082E07FD162E385E01FD163C08730A9F489
:1004B00082E077D160E088E017D12FEF39E688E15C
:1004C000215030408040E1F700C00000C0DE80E0F5
:1004D000B7D084E490E08AD04CC0883031F482E018
:1004E00060D182E390E082D044C08930A9F482E0F8
:1004F00058D160E085E0F8D09FEF29E638E19150CF
:1005000020403040E1F700C00000A1DE81E098D03B
:100510008AE590E06BD02DC08A3019F482E041D199
:1005200028C08B3019F482E03CD123C08C3009F50F
:1005300082E037D16DD083E034D18FEF93ED20E3AB
:10054000815090402040E1F700C0000086E708DEBF
:1005500088E606DE3FEF83E294EF31508040904022
:10056000E1F700C0000086E73DDE88E63BDE109242
:1005700004022FEF33ED80E3215030408040E1F75B
:1005800000C00000E19A7894FF91EF91BF91AF9184
:100590009F918F917F916F915F914F913F912F919B
:1005A0000F900BBE0F900FBE0F901F901895789470
:1005B0000DD156D0B7DD3ADE48E060E875E280E064
:1005C00090E00FD12FEF83ED90E3215080409040D9
:1005D000E1F700C00000B6D02FEF83ED90E321508B
:1005E00080409040E1F700C00000FFCF282F392F56
:1005F000220F331FA901440F551F440F551F240F0D
:10060000351F30932901209328018093000208951B
:100610002FEF89E698E1215080409040E1F700C03B
:10062000000080E090E0E2DF19DE2FEF89E698E13C
:10063000215080409040E1F700C0000013CE0895A3
:10064000811106C0EBE0F1E080818F77808308950F
:10065000813029F4EBE0F1E08081806880830895A7
:1006600088E880930A0183E88093200183E08093E7
:10067000210180E090E0BADF81E0E2DF82E3809355
:1006800000020895EF92FF920F931F93CF93DF9391
:100690000091000210E0E62EF12C0E151F05C4F4A7
:1006A000C82FD0E0C801A2DF1C161D0664F480E04C
:1006B00090E0EFE9FFE03197F1F700C0000001960C
:1006C0008C179D07B1F70F5F1F4F0E151F0554F3D1
:1006D000DF91CF911F910F91FF90EF900895B7DDBB
:1006E0006AE585E0CFCF0895EF92FF920F931F93B5
:1006F000CF93DF93C82FE62EB1DD0091000210E00A
:10070000F12CE016F106BCF4D0E0C8016FDF1C1636
:100710001D0664F480E090E0EFE9FFE03197F1F727
:1007200000C0000001968C179D07B1F70150110918
:10073000E016F10654F3DF91CF911F910F91FF90D6
:10074000EF900895E4E0F1E08081836080838EE79C
:1007500083D086E081D080E07FD080E07DD08EE1C4
:100760007BD08FEF79D08CED77D08FEE75D02FEFD7
:1007700083ED90E3215080409040E1F700C00000FD
:100780008EE76AD089E068D080E066D080E064D0EF
:1007900082E062D08FEF60D085EF5ED08FEE5CC0DC
:1007A0000895CF93C82F8EE757D083E055D080E0CF
:1007B00053D080E051D08C2F4FD08FEF4DD08DEFA4
:1007C0008C1B4AD08FEE48D0CF9108958AB18C7F90
:1007D0008AB98FE08093690010926A0083E08DBB34
:1007E00008950F931F938B019C010C521140210916
:1007F0003109053D104C2140310518F44550443075
:1008000018F081E090E052D028E12093310126E0F9
:1008100020933201DC01CB01880F991FAA1FBB1F57
:10082000880F991FAA1FBB1F9C01AD01220F331F08
:10083000441F551F220F331F441F551F60E074E2F1
:1008400084EF90E011D0215031093093350120938D
:1008500034011F910F910895E0E3F1E0908195FF3D
:10086000FDCF809336010895A1E21A2EAA1BBB1B6F
:10087000FD010DC0AA1FBB1FEE1FFF1FA217B3076C
:10088000E407F50720F0A21BB30BE40BF50B661F82
:10089000771F881F991F1A9469F760957095809546
:1008A00090959B01AC01BD01CF010895F894FFCF55
:0208B0001E0028
:04000003000006DE15
:00000001FF
