S00F000042696C4B6F64652E737265637B
S113000071C00000E3C100008EC200009DC1000069
S113001031C1000064C1000084C0000082C000003F
S113002080C000007EC000007CC000007AC00000D8
S113003078C0000076C0000074C0000072C00000E8
S113004070C000006EC000006CC000006AC00000F8
S113005068C0000066C0000064C0000062C0000008
S113006060C000005EC000005CC000005AC0000018
S113007058C0000056C0000054C0000052C0000028
S113008050C000004EC000004CC000004AC0000038
S113009048C0000046C0000044C0000042C0000048
S11300A040C000003EC000003CC000003AC0000058
S11300B038C0000036C0000034C0000032C0000068
S11300C030C000002EC000002CC000002AC0000078
S11300D028C0000026C0000024C0000022C0000088
S11300E020C0000011241FBECFEFD1E2DEBFCDBF80
S11300F000E00CBF12E0A0E0B2E0E2EBF9E000E0C7
S11301000BBF02C007900D92A230B107D9F722E0CD
S1130110A2E0B2E001C01D92A830B207E1F7C6D256
S113012046C46ECFE1E0F1E080818861808380EF96
S11301308093A00083E18093A10084EC99E09093E4
S1130140A7008093A6008AEC98E09093A90080937E
S1130150A8009093AB008093AA0008958836F9F420
S1130160109203021092020280E090E0E8EAF0E0CC
S11301708653974F918380838FE39CE90197F1F72E
S113018000C00000809102029091030201969093B6
S11301900302809302028C39910554F30895863743
S11301A0F1F4109203021092020280E090E0EAEA75
S11301B0F0E08653974F918380838FE39CE9019706
S11301C0F1F700C0000080910202909103020196B1
S11301D090930302809302028C39910554F308959D
S11301E0883639F48AEC98E09093A9008093A800AB
S11301F008958637E9F48BE990E0909303028093A5
S11302000202EAEAF0E08653974F918380838FE3FA
S11302109CE90197F1F700C00000809102029091DF
S113022003020197909303028093020299235CF7DF
S11302300895249AE1E0F1E080818064808381EA7A
S11302408093B00081E08093B1001092B3001092CB
S1130250B40008958FEF8093B30084E18093B400D9
S113026008958FEF8093B40008951092B300109214
S1130270B40008951F920F920FB60F9211240BB67B
S11302800F922F933F934F935F936F937F938F932B
S11302909F93AF93BF93EF93FF93809107028111D4
S11302A006C088E65BDF81E08093070204C088E62D
S11302B097DF10920702E39AFF91EF91BF91AF91FC
S11302C09F918F917F916F915F914F913F912F916A
S11302D00F900BBE0F900FBE0F901F9018951F929A
S11302E00F920FB60F9211240BB60F922F933F93D8
S11302F04F935F936F937F938F939F93AF93BF932A
S1130300EF93FF9380910602811106C086E726DFF2
S113031081E08093060204C086E762DF1092060241
S1130320E49AFF91EF91BF91AF919F918F917F914B
S11303306F915F914F913F912F910F900BBE0F9052
S11303400FBE0F901F9018951F920F920FB60F9229
S113035011240BB60F922F933F934F935F936F9398
S11303607F938F939F93AF93BF93EF93FF9380916A
S11303700502811114C081E08093050210920402E9
S11303808FD224E537E98FEB91E021503040804053
S11303909040D9F700C000C0000020D203C0B7D1FC
S11303A010920502E29AFF91EF91BF91AF919F9154
S11303B08F917F916F915F914F913F912F910F900A
S11303C00BBE0F900FBE0F901F9018951F920F92A7
S11303D00FB60F9211240BB60F922F933F934F93A6
S11303E05F936F937F938F939F93AF93BF93EF9399
S11303F0FF93F894809104028F5F8093040281300C
S113040019F482E04DD263C0823029F449D285E5E3
S113041090E06BD15CC0833031F482E041D287E359
S113042090E063D154C0843031F482E039D28AE55B
S113043090E05BD14CC0853031F482E031D262E38C
S113044085E0D1D144C08630A9F482E029D260E0AD
S113045085E0C9D12FEF89E698E121508040904092
S1130460E1F700C00000F6DE80E069D184E490E0AA
S11304703CD12DC0873019F482E012D228C08830D4
S1130480A9F482E00DD260E085E0ADD12FEF89E6DA
S113049098E1215080409040E1F700C00000DADE8E
S11304A081E04DD18AE590E020D111C0893019F462
S11304B082E0F6D10CC08A3019F482E0F1D107C091
S11304C08B3029F482E0ECD122D183E0E9D12FEF03
S11304D089E698E1215080409040E1F700C0000097
S11304E0809104028B3009F0B5DE2FEF89E698E1A4
S11304F0215080409040E1F700C00000E09A7894D9
S1130500FF91EF91BF91AF919F918F917F916F91E7
S11305105F914F913F912F910F900BBE0F900FBEA3
S11305200F901F9018951F920F920FB60F921124DF
S11305300BB60F922F933F934F935F936F937F93D9
S11305408F939F93AF93BF93EF93FF93F89480910E
S113055004028F5F80930402813019F482E0A0D1F9
S113056087C0823029F49CD185E590E0BED080C05C
S1130570833031F482E094D187E390E0B6D078C040
S1130580843031F482E08CD18AE590E0AED070C042
S1130590853081F482E084D162E385E024D12FEFB9
S11305A089E698E1215080409040E1F700C00000C6
S11305B051DE5EC08630A9F482E072D160E085E04D
S11305C012D12FEF89E698E1215080409040E1F765
S11305D000C000003FDE80E0B2D084E490E085D02B
S11305E047C0873019F482E05BD142C08830A9F457
S11305F082E056D160E085E0F6D02FEF89E698E1FD
S1130600215080409040E1F700C0000023DE81E0EB
S113061096D08AE590E069D02BC0893019F482E045
S11306203FD126C08A3019F482E03AD121C08B3000
S1130630F9F482E035D16BD083E032D12FEF83ED32
S113064090E3215080409040E1F700C0000086E72D
S113065085DD88E683DD2FEF8BE792E9215080402A
S11306609040E1F700C0000086E7BADD88E6B8DD17
S11306702FEF83ED90E3215080409040E1F700C0DC
S11306800000E19A7894FF91EF91BF91AF919F910F
S11306908F917F916F915F914F913F912F910F9027
S11306A00BBE0F900FBE0F901F90189578940DD12C
S11306B056D038DDBEDD48E060E875E280E090E0C9
S11306C011D12FEF83ED90E3215080409040E1F76A
S11306D000C00000B6D02FEF83ED90E3215080409E
S11306E09040E1F700C00000FFCF282F392F220FE0
S11306F0331FA901440F551F440F551F240F351FE5
S113070030932901209328018093000208952FEF4C
S113071089E698E1215080409040E1F700C0000054
S113072080E090E0E2DF9DDD2FEF89E698E1215043
S113073080409040E1F700C0000097CD08958111FA
S113074006C0EBE0F1E080818F77808308958130EB
S113075029F4EBE0F1E0808180688083089588E8E3
S113076080930A0183E88093200183E08093210130
S113077080E090E0BADF81E0E2DF82E38093000270
S11307800895EF92FF920F931F93CF93DF930091FD
S1130790000210E0E62EF12C0E151F05C4F4C82F3C
S11307A0D0E0C801A2DF1C161D0664F480E090E0CE
S11307B0EFE9FFE03197F1F700C0000001968C17D4
S11307C09D07B1F70F5F1F4F0E151F0554F3DF91FF
S11307D0CF911F910F91FF90EF9008953BDD6AE553
S11307E085E0CFCF0895EF92FF920F931F93CF939D
S11307F0DF93C82FE62E35DD0091000210E0F12CC6
S1130800E016F106BCF4D0E0C8016FDF1C161D062B
S113081064F480E090E0EFE9FFE03197F1F700C085
S1130820000001968C179D07B1F701501109E016DD
S1130830F10654F3DF91CF911F910F91FF90EF9048
S11308400895E4E0F1E08081836080838EE785D0C1
S113085086E083D080E081D080E07FD08EE17DD0BF
S11308608FEF7BD08CED79D08FEE77D02FEF83EDA7
S113087090E3215080409040E1F700C000008EE7F3
S11308806CD089E06AD080E068D080E066D082E0F5
S113089064D08FEF62D085EF60D08FEE5EC0089594
S11308A0CF93C82F8EE759D083E057D080E055D03E
S11308B080E053D08C2F51D08FEF4FD08DEF8C1B15
S11308C04CD08FEE4AD0CF9108958AB1807F8AB9F7
S11308D06C988FEA8093690082E080936A008FE1CC
S11308E08DBB08950F931F938B019C010C521140F3
S11308F021093109053D104C2140310518F44550BA
S1130900443018F081E090E052D028E12093310186
S113091026E020933201DC01CB01880F991FAA1F26
S1130920BB1F880F991FAA1FBB1F9C01AD01220F7B
S1130930331F441F551F220F331F441F551F60E0F0
S113094074E284EF90E011D02150310930933501E5
S1130950209334011F910F910895E0E3F1E0908119
S113096095FFFDCF809336010895A1E21A2EAA1BAC
S1130970BB1BFD010DC0AA1FBB1FEE1FFF1FA2174B
S1130980B307E407F50720F0A21BB30BE40BF50B48
S1130990661F771F881F991F1A9469F760957095D1
S11309A0809590959B01AC01BD01CF010895F89409
S10509B0FFCF73
S10509B21E0021
S90307DC19
