:1000000071C00000EDC100008CC0000086C200007D
:1000100048C100007BC10000AEC1000082C00000EA
:1000200080C000007EC000007CC000007AC00000DC
:1000300078C0000076C0000074C0000072C00000EC
:1000400070C000006EC000006CC000006AC00000FC
:1000500068C0000066C0000064C0000062C000000C
:1000600060C000005EC000005CC000005AC000001C
:1000700058C0000056C0000054C0000052C000002C
:1000800050C000004EC000004CC000004AC000003C
:1000900048C0000046C0000044C0000042C000004C
:1000A00040C000003EC000003CC000003AC000005C
:1000B00038C0000036C0000034C0000032C000006C
:1000C00030C000002EC000002CC000002AC000007C
:1000D00028C0000026C0000024C0000022C000008C
:1000E00020C0000011241FBECFEFD1E2DEBFCDBF84
:1000F00000E00CBF12E0A0E0B2E0EEE2FAE000E0C7
:100100000BBF02C007900D92A230B107D9F722E0D1
:10011000A2E0B2E001C01D92A830B207E1F79AD286
:1001200084C46ECFE1E0F1E080818861808380EF5C
:100130008093A00083E18093A10084EC99E09093E8
:10014000A7008093A6008AEC98E09093A900809382
:10015000A8009093AB008093AA0008958836F9F424
:10016000109203021092020280E090E0E8EAF0E0D0
:100170008653974F918380838FE39CE90197F1F732
:1001800000C00000809102029091030201969093BA
:100190000302809302028634910554F30895863752
:1001A000F1F4109203021092020280E090E0EAEA79
:1001B000F0E08653974F918380838FE39CE901970A
:1001C000F1F700C0000080910202909103020196B5
:1001D00090930302809302028634910554F30895AC
:1001E0008836F1F485E490E0909303028093020254
:1001F000E8EAF0E08653974F918380838FE39CE990
:100200000197F1F700C00000809102029091030273
:100210000197909303028093020299235CF708955B
:100220008637E9F485E490E090930302809302021C
:10023000EAEAF0E08653974F918380838FE39CE94D
:100240000197F1F700C00000809102029091030233
:100250000197909303028093020299235CF708951B
:10026000249AE1E0F1E080818064808381EA8093D8
:10027000B00081E08093B1001092B3001092B400FE
:1002800008958FEF8093B30083E38093B4000895C3
:100290008FEF8093B40008951092B3001092B400D1
:1002A00008951F920F920FB60F9211240BB60F9262
:1002B0002F933F934F935F936F937F938F939F936E
:1002C000AF93BF93EF93FF9380910702811106C014
:1002D00088E644DF81E08093070204C088E680DF7F
:1002E00010920702E39AFF91EF91BF91AF919F9116
:1002F0008F917F916F915F914F913F912F910F90CF
:100300000BBE0F900FBE0F901F9018951F920F926B
:100310000FB60F9211240BB60F922F933F934F936A
:100320005F936F937F938F939F93AF93BF93EF935D
:10033000FF9380910602811106C086E70FDF81E0FE
:100340008093060204C086E74BDF10920602E49A0F
:10035000FF91EF91BF91AF919F918F917F916F919D
:100360005F914F913F912F910F900BBE0F900FBE59
:100370000F901F9018951F920F920FB60F92112495
:100380000BB60F922F933F934F935F936F937F938F
:100390008F939F93AF93BF93EF93FF938091050249
:1003A000811107C01092040214D281E080930502EB
:1003B00003C0A8D110920502E59AFF91EF91BF9179
:1003C000AF919F918F917F916F915F914F913F91ED
:1003D0002F910F900BBE0F900FBE0F901F9018958E
:1003E0001F920F920FB60F9211240BB60F922F93FC
:1003F0003F934F935F936F937F938F939F93AF93AD
:10040000BF93EF93FF93F894809104028F5F8093E2
:10041000040288E6E0D280910402813019F482E07F
:100420003AD24FC0823029F436D285E590E058D1D7
:1004300048C0833031F482E02ED287E390E050D17F
:1004400040C0843031F482E026D28AE590E048D181
:1004500038C0853031F482E01ED262E385E0BED13F
:1004600030C0863059F482E016D260E085E0B6D123
:1004700080E060D184E490E033D123C0873019F468
:1004800082E009D21EC0883059F482E004D260E0D4
:1004900085E0A4D181E04ED18AE590E021D111C060
:1004A000893019F482E0F7D10CC08A3019F482E067
:1004B000F2D107C08B3029F482E0EDD123D183E063
:1004C000EAD12FEF89E698E1215080409040E1F792
:1004D00000C00000809104028B3009F0D2DE2FEFC3
:1004E00089E698E1215080409040E1F700C000008B
:1004F000E09A7894FF91EF91BF91AF919F918F9186
:100500007F916F915F914F913F912F910F900BBE13
:100510000F900FBE0F901F9018951F920F920FB65D
:100520000F9211240BB60F922F933F934F935F932B
:100530006F937F938F939F93AF93BF93EF93FF93AB
:10054000F894809104028F5F8093040286E743D27F
:1005500080910402813019F482E09DD14FC0823035
:1005600029F499D185E590E0BBD048C0833031F4BF
:1005700082E091D187E390E0B3D040C0843031F481
:1005800082E089D18AE590E0ABD038C0853031F483
:1005900082E081D162E385E021D130C0863059F418
:1005A00082E079D160E085E019D180E0C3D084E4B5
:1005B00090E096D023C0873019F482E06CD11EC041
:1005C000883059F482E067D160E085E007D181E0AE
:1005D000B1D08AE590E084D011C0893019F482E06E
:1005E0005AD10CC08A3019F482E055D107C08B3043
:1005F00029F482E050D186D083E04DD12FEF89E6F7
:1006000098E1215080409040E1F700C000008091C7
:1006100004028B3009F035DE2FEF89E698E1215096
:1006200080409040E1F700C00000E29A7894FF918A
:10063000EF91BF91AF919F918F917F916F915F915A
:100640004F913F912F910F900BBE0F900FBE0F90C7
:100650001F901895789434D17DD064DD01DE48E098
:1006600060E875E280E090E038D12FEF33ED80E371
:10067000215030408040E1F700C0000048E060E8D1
:1006800075E280E090E064D19FEF23ED30E391507C
:1006900020403040E1F700C00000CED08FEF93ED56
:1006A00020E3815090402040E1F700C0000081E04D
:1006B000F2D034E587E99FEB21E031508040904053
:1006C0002040D9F700C000C0000083D03FEF8BE787
:1006D00092E9315080409040E1F700C00000FFCF28
:1006E000282F392F220F331FA901440F551F440F04
:1006F000551F240F351F3093290120932801809323
:10070000000208952FEF89E698E121508040904043
:10071000E1F700C0000080E090E0E2DFB9DD2FEFFC
:1007200089E698E1215080409040E1F700C0000048
:10073000B3CD0895811106C0EBE0F1E080818F77A1
:1007400080830895813029F4EBE0F1E080818068B6
:100750008083089588E880930A0183E880932001CC
:1007600083E08093210180E090E0BADF81E0E2DF66
:1007700082E3809300020895EF92FF920F931F93FC
:10078000CF93DF930091000210E0E62EF12C0E15BE
:100790001F05C4F4C82FD0E0C801A2DF1C161D0637
:1007A00064F480E090E0EFE9FFE03197F1F700C0FA
:1007B000000001968C179D07B1F70F5F1F4F0E15B4
:1007C0001F0554F3DF91CF911F910F91FF90EF9090
:1007D000089557DD6AE582E0CFCF0895EF92FF924A
:1007E0000F931F93CF93DF93C82FE62E51DD009117
:1007F000000210E0F12CE016F106BCF4D0E0C801D4
:100800006FDF1C161D0664F480E090E0EFE9FFE066
:100810003197F1F700C0000001968C179D07B1F7E2
:1008200001501109E016F10654F3DF91CF911F91A9
:100830000F91FF90EF900895E4E0F1E080818360F4
:1008400080838EE7C0D086E0BED080E0BCD080E060
:10085000BAD08EE1B8D08FEFB6D08CEDB4D08FEE99
:10086000B2D02FEF83ED90E3215080409040E1F72C
:1008700000C000008EE7A7D089E0A5D080E0A3D01B
:1008800080E0A1D082E09FD08FEF9DD085EF9BD0FC
:100890008FEE99C00895CF93C82F8EE794D083E050
:1008A00092D080E090D080E08ED08C2F8CD08FEFD3
:1008B0008AD08DEF8C1B87D08FEE85D0CF91089595
:1008C0008AB1807F8AB96C988FEA8093690082E050
:1008D00080936A008FE18DBB08950F931F938B0166
:1008E0009C010C52114021093109053D104C214059
:1008F000310518F44550443018F081E090E095D06F
:1009000028E12093310126E020933201DC01CB0164
:10091000880F991FAA1FBB1F880F991FAA1FBB1FF3
:100920009C01AD01220F331F441F551F220F331F9F
:10093000441F551F60E074E284EF90E054D02150D2
:10094000310930933501209334011F910F9108959F
:100950000F931F938B019C010C5211402109310907
:10096000053D104C2140310518F44550443018F035
:1009700081E090E05AD028E12093C10026E0209346
:10098000C200DC01CB01880F991FAA1FBB1F880F73
:10099000991FAA1FBB1F9C01AD01220F331F441FCB
:1009A000551F220F331F441F551F60E074E284EF70
:1009B00090E019D0215031093093C5002093C40034
:1009C0001F910F910895E0E3F1E0908195FFFDCF35
:1009D000809336010895E0ECF0E0908195FFFDCF23
:1009E0008093C6000895A1E21A2EAA1BBB1BFD012D
:1009F0000DC0AA1FBB1FEE1FFF1FA217B307E407FE
:100A0000F50720F0A21BB30BE40BF50B661F771F55
:100A1000881F991F1A9469F7609570958095909535
:0E0A20009B01AC01BD01CF010895F894FFCFFA
:020A2E001E00A8
:04000003000007D220
:00000001FF
