:1000000071C000006BC100009CC10000CDC10000A8
:1000100000C20000BFC2000077C0000075C0000031
:1000200073C0000071C000006FC000006DC0000010
:100030006BC0000069C0000067C0000065C0000020
:1000400063C0000061C000005FC000005DC0000030
:100050005BC0000059C0000057C0000055C0000040
:1000600053C0000051C000004FC000004DC0000050
:100070004BC0000049C0000047C0000045C0000060
:1000800043C0000041C000003FC000003DC0000070
:100090003BC0000039C0000037C0000035C0000080
:1000A00033C0000031C000002FC000002DC0000090
:1000B0002BC0000029C0000027C0000025C00000A0
:1000C00023C0000021C000001FC000001DC00000B0
:1000D0001BC0000019C0000017C0000015C00000C0
:1000E00013C0000011241FBECFEFD1E2DEBFCDBF91
:1000F00000E00CBF22E0A0E0B2E001C01D92A630FB
:10010000B207E1F708D310C47BCF8FEF80930101D2
:1001100084EC99E09093A7008093A60080EC8093F4
:10012000A00083E18093A1001092010210920002CE
:1001300080E090E0E8EAF0E08653974F9183808377
:100140008FE39CE90197F1F700C000008091000265
:1001500090910102019690930102809300028739E9
:10016000910554F308958FEF8093010184EC99E099
:100170009093A7008093A60080EC8093A00083E179
:100180008093A10086E990E09093010280930002A1
:10019000E8EAF0E08653974F918380838FE39CE9F0
:1001A0000197F1F700C000008091000290910102D8
:1001B0000197909301028093000299235CF70895C0
:1001C0008FEF8093010184EC99E09093A7008093D6
:1001D000A60080E38093A00083E18093A1001092A9
:1001E00001021092000280E090E0EAEAF0E086531B
:1001F000974F918380838FE39CE90197F1F700C0CB
:1002000000008091000290910102019690930102FA
:10021000809300028739910554F308958FEF8093FE
:10022000010184EC99E09093A7008093A60080E3FD
:100230008093A00083E18093A10086E990E09093F1
:10024000010280930002EAEAF0E08653974F91831F
:1002500080838FE39CE90197F1F700C00000809153
:100260000002909101020197909301028093000295
:1002700099235CF7089577DFD1CF0895E1E0F1E0AD
:100280008081826480836B9A84B18FEF84B985B159
:1002900015B883E28093B00081E08093B10093E8C9
:1002A00090939000809391001092B4001092990066
:1002B000109298000895813059F485B18FEF85B977
:1002C0008093B40084EF91E090939900809398001C
:1002D0000895813011F485B115B808951F920F92D9
:1002E0000FB60F9211240BB60F922F933F934F939B
:1002F0005F936F937F938F939F93AF93BF93EF938E
:10030000FF9380910502811105C0FFDE81E080939B
:10031000050203C028DF10920502E09AFF91EF91D9
:10032000BF91AF919F918F917F916F915F914F910D
:100330003F912F910F900BBE0F900FBE0F901F900B
:1003400018951F920F920FB60F9211240BB60F92B1
:100350002F933F934F935F936F937F938F939F93CD
:10036000AF93BF93EF93FF9380910402811105C077
:1003700027DF81E08093040203C050DF1092040263
:10038000E19AFF91EF91BF91AF919F918F917F91F2
:100390006F915F914F913F912F910F900BBE0F90F6
:1003A0000FBE0F901F9018951F920F920FB60F92CD
:1003B00011240BB60F922F933F934F935F936F933C
:1003C0007F938F939F93AF93BF93EF93FF9380910E
:1003D0000302811107C010920202C7D181E080930D
:1003E000030203C0CBD110920302E29AFF91EF9176
:1003F000BF91AF919F918F917F916F915F914F913D
:100400003F912F910F900BBE0F900FBE0F901F903A
:1004100018951F920F920FB60F9211240BB60F92E0
:100420002F933F934F935F936F937F938F939F93FC
:10043000AF93BF93CF93DF93EF93FF93809102022B
:100440008F5F80930202813011F482E0E8D18091C5
:100450000202823029F485E590E097D182E0DFD175
:1004600080910202833029F487E390E08ED182E00C
:10047000D6D180910202843029F48AE590E085D1BA
:1004800082E0CDD180910202853009F067C082E31D
:1004900090E07BD182E0C3D1809102028630B1F43A
:1004A000C2E3D0E0CE0171D12FEF89EF90E021506F
:1004B00080409040E1F700C00000219799F780E06C
:1004C00074D184E490E061D182E0A9D180910202EC
:1004D000873009F047C082E0A2D1809102028830C3
:1004E000B1F4C2E3D0E0CE0150D12FEF89EF90E01C
:1004F000215080409040E1F700C00000219799F71B
:1005000081E053D18AE590E040D182E088D18091AA
:100510000202893011F482E082D1809102028A3095
:1005200011F482E07CD1809102028B3061F42FEFD4
:1005300089E698E1215080409040E1F700C000003A
:100540001DD183E06CD12FEF83ED90E321508040EB
:100550009040E1F700C00000E39A07C0863009F040
:10056000B5CF9ECF883099F6BCCFFF91EF91DF9148
:10057000CF91BF91AF919F918F917F916F915F913B
:100580004F913F912F910F900BBE0F900FBE0F9088
:100590001F9018951F920F920FB60F9211240BB651
:1005A0000F922F933F934F935F936F937F938F930C
:1005B0009F93AF93BF93CF93DF93EF93FF9380917C
:1005C00002028F5F80930202813011F482E027D112
:1005D00080910202823029F485E590E0D6D082E055
:1005E0001ED180910202833029F487E390E0CDD0C0
:1005F00082E015D180910202843029F48AE590E0EE
:10060000C4D082E00CD180910202853009F067C02D
:1006100082E390E0BAD082E002D18091020286307B
:10062000B1F4C2E3D0E0CE01B0D02FEF89EF90E07B
:10063000215080409040E1F700C00000219799F7D9
:1006400080E0B3D084E490E0A0D082E0E8D0809154
:100650000202873009F047C082E0E1D080910202B7
:100660008830B1F4C2E3D0E0CE018FD02FEF89EF14
:1006700090E0215080409040E1F700C000002197B9
:1006800099F781E092D08AE590E07FD082E0C7D0F0
:1006900080910202893011F482E0C1D0809102027F
:1006A0008A3011F482E0BBD0809102028B3061F479
:1006B0002FEF89E698E1215080409040E1F700C09B
:1006C00000005CD083E0ABD02FEF83ED90E32150AE
:1006D00080409040E1F700C00000E49A07C08630F7
:1006E00009F0B5CF9ECF883099F6BCCFFF91EF913E
:1006F000DF91CF91BF91AF919F918F917F916F913A
:100700005F914F913F912F910F900BBE0F900FBEB5
:100710000F901F90189598D058D0ADDDAFDD48E010
:1007200060E875E280E090E09AD02FEF83ED90E3EF
:10073000215080409040E1F700C0000056D02FEFDC
:1007400083ED90E3215080409040E1F700C000002D
:1007500081E065D02FEF83ED90E321508040904001
:10076000E1F700C0000001D0FFCF84E893E0909350
:1007700029018093280181E09ECD089510922901DE
:100780001092280181E0A5CD08959C01220F331F0E
:10079000880F991F880F991F880F991F820F931F29
:1007A00090932901809328010895811106C0EBE000
:1007B000F1E080818F7780830895813029F4EBE028
:1007C000F1E0808180688083089588E880930A0141
:1007D00083E88093200185E0809321011092290114
:1007E0001092280181E0E1CF08958EE773D086E072
:1007F00071D080E06FD080E06DD08EE16BD08FEF54
:1008000069D08CED67D08FEE65D02FEF83ED90E34C
:10081000215080409040E1F700C000000895CF9340
:10082000C82F8EE757D083E055D080E053D080E0CA
:1008300051D08C2F4FD08FEF4DD08DEF8C1B4AD0E5
:100840008FEE48D0CF9108951AB88AEE8093690050
:1008500083E080936A008FE18DBB789408950F93B5
:100860001F938B019C010C52114021093109053D58
:10087000104C2140310518F44550443018F081E007
:1008800090E052D028E12093D10026E02093D200BE
:10089000DC01CB01880F991FAA1FBB1F880F991F6E
:1008A000AA1FBB1F9C01AD01220F331F441F551F00
:1008B000220F331F441F551F60E074E284EF90E065
:1008C00011D0215031093093D5002093D4001F91CD
:1008D0000F910895E0EDF0E0908195FFFDCF8093BA
:1008E000D6000895A1E21A2EAA1BBB1BFD010DC064
:1008F000AA1FBB1FEE1FFF1FA217B307E407F507D0
:1009000020F0A21BB30BE40BF50B661F771F881FAB
:10091000991F1A9469F760957095809590959B0141
:0C092000AC01BD01CF010895F894FFCF99
:040000030000076A88
:00000001FF
