S00F000042696C4B6F64652E737265637B
S113000071C000006BC100009CC10000CDC10000A4
S1130010FEC1000079C0000077C0000075C0000078
S113002073C0000071C000006FC000006DC000000C
S11300306BC0000069C0000067C0000065C000001C
S113004063C0000061C000005FC000005DC000002C
S11300505BC0000059C0000057C0000055C000003C
S113006053C0000051C000004FC000004DC000004C
S11300704BC0000049C0000047C0000045C000005C
S113008043C0000041C000003FC000003DC000006C
S11300903BC0000039C0000037C0000035C000007C
S11300A033C0000031C000002FC000002DC000008C
S11300B02BC0000029C0000027C0000025C000009C
S11300C023C0000021C000001FC000001DC00000AC
S11300D01BC0000019C0000017C0000015C00000BC
S11300E013C0000011241FBECFEFD1E2DEBFCDBF8D
S11300F000E00CBF22E0A0E0B2E001C01D92A630F7
S1130100B207E1F706D211C37BCF8FEF80930101D1
S113011084EC99E09093A7008093A60080EC8093F0
S1130120A00083E18093A1001092010210920002CA
S113013080E090E0E8EAF0E08653974F9183808373
S11301408FE39CE90197F1F700C000008091000261
S113015090910102019690930102809300028739E5
S1130160910554F308958FEF8093010184EC99E095
S11301709093A7008093A60080EC8093A00083E175
S11301808093A10086E990E090930102809300029D
S1130190E8EAF0E08653974F918380838FE39CE9EC
S11301A00197F1F700C000008091000290910102D4
S11301B00197909301028093000299235CF70895BC
S11301C08FEF8093010184EC99E09093A7008093D2
S11301D0A60080E38093A00083E18093A1001092A5
S11301E001021092000280E090E0EAEAF0E0865317
S11301F0974F918380838FE39CE90197F1F700C0C7
S113020000008091000290910102019690930102F6
S1130210809300028739910554F308958FEF8093FA
S1130220010184EC99E09093A7008093A60080E3F9
S11302308093A00083E18093A10086E990E09093ED
S1130240010280930002EAEAF0E08653974F91831B
S113025080838FE39CE90197F1F700C0000080914F
S11302600002909101020197909301028093000291
S113027099235CF7089577DFD1CF0895E1E0F1E0A9
S11302808081826480836B9A84B18FEF84B985B155
S113029015B883E28093B00081E08093B10093E8C5
S11302A090939000809391001092B4001092990062
S11302B0109298000895813059F485B18FEF85B973
S11302C08093B40084EF91E0909399008093980018
S11302D00895813011F485B115B808951F920F92D5
S11302E00FB60F9211240BB60F922F933F934F9397
S11302F05F936F937F938F939F93AF93BF93EF938A
S1130300FF9380910502811105C0FFDE81E0809397
S1130310050203C028DF10920502E09AFF91EF91D5
S1130320BF91AF919F918F917F916F915F914F9109
S11303303F912F910F900BBE0F900FBE0F901F9007
S113034018951F920F920FB60F9211240BB60F92AD
S11303502F933F934F935F936F937F938F939F93C9
S1130360AF93BF93EF93FF9380910402811105C073
S113037027DF81E08093040203C050DF109204025F
S1130380E19AFF91EF91BF91AF919F918F917F91EE
S11303906F915F914F913F912F910F900BBE0F90F2
S11303A00FBE0F901F9018951F920F920FB60F92C9
S11303B011240BB60F922F933F934F935F936F9338
S11303C07F938F939F93AF93BF93EF93FF9380910A
S11303D00302811105C0C0D081E08093030203C0F1
S11303E0C3D010920302E19AFF91EF91BF91AF91B4
S11303F09F918F917F916F915F914F913F912F9139
S11304000F900BBE0F900FBE0F901F9018951F9268
S11304100F920FB60F9211240BB60F922F933F93A6
S11304204F935F936F937F938F939F93AF93BF93F8
S1130430EF93FF93809102028F5F809302028130D9
S113044011F482E0DDD080910202823009F4D8D028
S113045080910202833029F48CE390E08ED082E014
S1130460CFD080910202843029F48AE590E085D0CF
S113047082E0C6D080910202853029F482E390E0C4
S11304807CD082E0BDD080910202863021F480E0ED
S113049084D082E0B5D080910202873011F482E0EA
S11304A0AFD080910202883039F481E076D08AE5B9
S11304B090E063D082E0A4D080910202893011F4EC
S11304C082E09ED0809102028A3011F482E098D0BA
S11304D0809102028B3019F447D083E091D08FE3EE
S11304E09CE90197F1F700C00000E39AFF91EF91B6
S11304F0BF91AF919F918F917F916F915F914F9138
S11305003F912F910F900BBE0F900FBE0F901F9035
S113051018959CD052D0AFDEB1DE48E060E875E2B9
S113052080E090E09DD05BD080D02FEF33ED80E36E
S1130530215030408040E1F700C0000081E060D0ED
S11305409AEA26EE36E981E091502040304080401E
S1130550D9F7000001D0FFCFEAE0F1E080818860A4
S1130560808381E0A8CE089510920A0181E0B1DE73
S1130570109229011092280108959C01220F331F23
S1130580880F991F880F991F880F991F820F931F37
S113059090932901809328010895811106C0EBE00E
S11305A0F1E080818F7780830895813029F4EBE036
S11305B0F1E0808180688083089580E880930A0157
S11305C083E88093200185E0809321018EED93E000
S11305D0909329018093280181E0DFCF08958EE76D
S11305E07AD08CE078D080E076D080E074D080E05F
S11305F072D08FEF70D084EF6ED08FEE6CC0089500
S1130600CF93C82F8EE767D083E065D080E063D0B6
S113061080E061D08C2F5FD08FEF5DD08DEF8C1B8D
S11306205AD08FEE58D0CF9108958EE754D086E0FB
S113063052D080E050D080E04ED08EE14CD08FEF8D
S11306404AD08CED48D08FEE46C008951AB88AEE91
S11306508093690010926A008FE08DBB78940895AE
S11306600F931F938B019C010C52114021093109F6
S1130670053D104C2140310518F44550443018F024
S113068081E090E052D028E12093D10026E020932D
S1130690D200DC01CB01880F991FAA1FBB1F880F52
S11306A0991FAA1FBB1F9C01AD01220F331F441FBA
S11306B0551F220F331F441F551F60E074E284EF5F
S11306C090E011D0215031093093D5002093D4000B
S11306D01F910F910895E0EDF0E0908195FFFDCF1B
S11306E08093D6000895A1E21A2EAA1BBB1BFD011C
S11306F00DC0AA1FBB1FEE1FFF1FA217B307E407FD
S1130700F50720F0A21BB30BE40BF50B661F771F54
S1130710881F991F1A9469F7609570958095909534
S11107209B01AC01BD01CF010895F894FFCFF9
S90305589F
