:1000000071C0000038C1000069C100007DC000005F
:100010007BC0000079C0000077C0000075C0000000
:1000200073C0000071C000006FC000006DC0000010
:100030006BC0000069C0000067C0000065C0000020
:1000400063C0000061C000005FC000005DC0000030
:100050005BC0000059C0000057C0000055C0000040
:1000600053C0000051C000004FC000004DC0000050
:100070004BC0000049C0000047C0000045C0000060
:1000800043C0000041C000003FC000003DC0000070
:100090003BC0000039C0000037C0000035C0000080
:1000A00033C0000031C000002FC000002DC0000090
:1000B0002BC0000029C0000027C0000025C00000A0
:1000C00023C0000021C000001FC000001DC00000B0
:1000D0001BC0000019C0000017C0000015C00000C0
:1000E00013C0000011241FBECFEFD1E2DEBFCDBF91
:1000F00000E00CBF22E0A0E0B2E001C01D92A430FD
:10010000B207E1F71ED129C17BCF8FEF80930101A8
:1001100084EC99E09093A7008093A60080EC8093F4
:10012000A00083E18093A1001092010210920002CE
:1001300080E090E0E8EAF0E08653974F9183808377
:100140008FE39CE90197F1F700C000008091000265
:1001500090910102019690930102809300028739E9
:10016000910554F308958FEF8093010184EC99E099
:100170009093A7008093A60080EC8093A00083E179
:100180008093A10086E990E09093010280930002A1
:10019000E8EAF0E08653974F918380838FE39CE9F0
:1001A0000197F1F700C000008091000290910102D8
:1001B0000197909301028093000299235CF70895C0
:1001C0008FEF8093010184EC99E09093A7008093D6
:1001D000A60080E38093A00083E18093A1001092A9
:1001E00001021092000280E090E0EAEAF0E086531B
:1001F000974F918380838FE39CE90197F1F700C0CB
:1002000000008091000290910102019690930102FA
:10021000809300028739910554F308958FEF8093FE
:10022000010184EC99E09093A7008093A60080E3FD
:100230008093A00083E18093A10086E990E09093F1
:10024000010280930002EAEAF0E08653974F91831F
:1002500080838FE39CE90197F1F700C00000809153
:100260000002909101020197909301028093000295
:1002700099235CF708951F920F920FB60F921124E5
:100280000BB60F922F933F934F935F936F937F9390
:100290008F939F93AF93BF93EF93FF93809103024C
:1002A000811105C032DF81E08093030203C05BDF70
:1002B00010920302E09AFF91EF91BF91AF919F914D
:1002C0008F917F916F915F914F913F912F910F90FF
:1002D0000BBE0F900FBE0F901F9018951F920F929C
:1002E0000FB60F9211240BB60F922F933F934F939B
:1002F0005F936F937F938F939F93AF93BF93EF938E
:10030000FF9380910202811105C05ADF81E0809342
:10031000020203C083DF10920202E19AFF91EF9183
:10032000BF91AF919F918F917F916F915F914F910D
:100330003F912F910F900BBE0F900FBE0F901F900B
:10034000189501D0FFCF1AB88AE280936900109205
:0E0350006A0087E08DBB78940895F894FFCF83
:00000001FF
